:101C00000EC01DC01CC01BC01AC019C018C017C010
:101C100016C015C014C013C012C011C010C01124CA
:101C20001FBECFE5D2E0DEBFCDBF20E0A0E6B0E032
:101C300001C01D92A93AB207E1F739D1D6C1E0CF70
:101C4000E199FECF1CBA811522E0920730F49FBBC8
:101C50008EBB6DBBE29AE19A08958FEF91E0F7CFCA
:101C6000CF93DF9300D000D0CDB7DEB71C821B82AC
:101C70001C821B8286B3887096B398709817E1F324
:101C800026B3287012BE90E080E036B33870321769
:101C9000E1F342B712BE26B328708830910538F0C0
:101CA0006B817C81460F572F511D5C834B830196BE
:101CB0008031910551F78B819C8163E070E07BD18D
:101CC00035E0969587953A95E1F79A83898332B7FF
:101CD00089819A8138171906D0F386B38870281342
:101CE0000FC086B388708217E1F326B3287012BE46
:101CF00032B789819A8138171906D0F312BEEDCF19
:101D000086B3887048E352E030E028E096B39870DC
:101D10009817E1F312BE66B3687072B789819A8131
:101D200078171906D0F386B38870E32FF0E0EE59E8
:101D3000FF4F9081990F681310C09083215011F4C8
:101D40003F5F28E04150510909F781E00F900F9063
:101D50000F900F90DF91CF9108959160EECF1F9378
:101D6000CF93DF93F894EB0123E0FB01209357001E
:101D7000E89507B600FCFDCFDA0130E020E011E085
:101D8000EC9111964C91119750E0542F44274E0F2F
:101D9000511D611571058105910559F42115310514
:101DA00041F44F5F5F4B50936100409360004FEFF1
:101DB0005DECFE01E20FF31F0A0110935700E89556
:101DC000112407B600FCFDCF2E5F3F4F1296203442
:101DD0003105B1F625E0FB0120935700E89507B6E1
:101DE00000FCFDCFDF91CF911F91089517BAF894B1
:101DF00013BE089542E050E06EEF7BE180E690E094
:101E0000EBD08091600090916100892B31F0EEDF82
:101E1000E0916000F091610009940895E7DF80ECA3
:101E20009BE1A0E6B0E042E050E071E08E3F2BE1A4
:101E3000920709F038C04115510509F434C02D91BD
:101E40003C9111974250510912966FB7F894FC01DA
:101E5000090170935700E89511246FBF0296811510
:101E6000FCE19F0719F7E199FECF8FB7F89493E053
:101E7000E0ECFBE190935700E89507B600FCFDCF3E
:101E800095E0E0ECFBE190935700E89507B600FC85
:101E9000FDCF91E190935700E8958FBFE0916000EE
:101EA000F09161000994FC0125913491CECFB89A4C
:101EB000BB9882E083BF16B3187043E0F42E0AE0AB
:101EC000C0E1D7E2EE24E39482B7853660F012BE1B
:101ED000219749F488B38E2588BB015011F4C0982E
:101EE00089DFC0E1D7E286B39FEF9F0D887081172D
:101EF00059F316B31870911113C0C09AFF24F394CC
:101F0000AFDE81110FC091E082B78536E8F312BED3
:101F10002197D1F788B3892788BBC8EED3E0F4CFE7
:101F2000F92ED2CF80916200833019F1843019F1FB
:101F30008230E1F460916400862F90E0982F88272A
:101F400060916300680F792F711D36E0660F771F6F
:101F50003A95E1F761158CE1780740F490E080E074
:101F600049E650E0FCDE88B38F2588BB1092620002
:101F7000C7CF54DFFBCFB09065000091630002959E
:101F8000000F000F007C82E6C82E80E0D82EE12CE6
:101F900010E002561040BE1459F0F6016781C801E6
:101FA0008C0D9D1D4DDEE394FFEFCF1ADF0AF3CFBA
:101FB000C09820DFDBCF0024552704C0080E591F2E
:101FC000880F991F009729F076956795B8F37105EA
:101FD000B9F7802D952F0895FB01DC0102C0059013
:0E1FE0000D9241505040D8F70895F894FFCF6D
:0400000300001C00DD
:00000001FF
