:02000000DFCD52
:101C00000EC01DC01CC01BC01AC019C018C017C010
:101C100016C015C014C013C012C011C010C01124CA
:101C20001FBECFE5D2E0DEBFCDBF20E0A0E6B0E032
:101C300001C01D92A93AB207E1F7A8D0D7C1E0CF01
:101C4000CF92DF92EF92FF926B017C01F894DB015F
:101C500083E0F60180935700E89507B600FCFDCFBE
:101C600020E030E061E0FA0170814E5F5F4F319615
:101C7000808190E0982F8827870F911DC114D1048F
:101C8000E104F10459F42115310541F48F5F9F4BB4
:101C90009093A8008093A7008FED9DECF901EA0FC7
:101CA000FB1F0C0160935700E895112407B600FC58
:101CB000FDCF2E5F3F4F20343105A9F685E0F601B8
:101CC00080935700E89507B600FCFDCFFF90EF909A
:101CD000DF90CF90089517BAF89413BE16B817B8CE
:101CE000E091A700F091A800099442E050E06EEB6B
:101CF0007BE187EA90E071D18091A7009091A800E4
:101D0000892B09F0E8CF089580E89BE1A7EAB0E0CD
:101D100022E030E071E08E3B4BE1940751F4211555
:101D2000310539F04D915C9111972250310912968D
:101D300003C0FC01459154916FB7F894FC010A016E
:101D400070935700E89511246FBF0296803CFBE129
:101D50009F0709F7E199FECF8FB7F894E0E8FBE120
:101D600093E090935700E89507B600FCFDCFE0E8BC
:101D7000FBE195E090935700E89507B600FCFDCF96
:101D800091E190935700E8958FBFA5CFCF93DF9354
:101D900000D000D01F92CDB7DEB7BB9883E287B9E1
:101DA00086E886B9369A3699FECF369A3699FECFAE
:101DB00085B18C3408F099DFB99A82E083BF16B3FD
:101DC000187003E042E3F42E80E197E252E0E52E42
:101DD00022B7253668F012BE019751F488B38E25DC
:101DE00088BBFA94F11002C0C1987FDF80E197E2CE
:101DF00026B3412F50E0287030E04217530719F006
:101E000016B3187001500111E3CFC19A0FEF11E022
:101E10001C821B821C821B8226B3287030E086B392
:101E2000887090E028173907D1F386B3282F2870DF
:101E300012BE60E070E0822F90E046B3487050E040
:101E400084179507D1F332B712BE86B3282F2870B6
:101E50006830710530F08B819C81830F911D9C83CC
:101E60008B836F5F7F4F6031710529F78B819C8178
:101E700063E070E0A1D035E0969587953A95E1F75B
:101E80009A83898382B749815A8190E084179507A4
:101E9000C8F3822F90E026B3287030E082179307B2
:101EA00099F426B3287030E082179307D1F386B3F4
:101EB000282F287012BE82B749815A8190E084177A
:101EC0009507C8F312BEE5CF86B3887048E352E0A9
:101ED00068E070E090E026B3287030E08217930746
:101EE000D1F312BE26B3287082B7E981FA8190E05F
:101EF0008E179F07C8F386B38870E72FF0E0E05A8B
:101F0000FF4F9081990F281391609083615011F4D5
:101F10007F5F68E041505109E9F62091600023306D
:101F200011F1243011F1223009F043C060916200B8
:101F300070E0762F662780916100680F711D96E032
:101F4000660F771F9A95E1F7603C5BE1750788F5AE
:101F500080E090E047E650E02D8372DE88B32D816B
:101F6000282728BB26C0D0DE24C0309163002091F2
:101F700061002295220F220F207C822F90E0E7E65D
:101F8000F0E0482F421B431790F44191E199FECFB6
:101F90001CBA811552E095071CF49FBB8EBB02C092
:101FA0001FBB0EBB4DBBE29AE19A0196EACFC198E6
:101FB0009CDE109260002CCF0024552704C0080E30
:101FC000591F880F991F009729F076956795B8F3E8
:101FD0007105B9F7802D952F0895FB01DC0102C032
:101FE00005900D9241505040D8F70895F894FFCFD6
:0400000300001C00DD
:00000001FF
